:020000040800F2
:10000000900400200501000877100008910F0008F7
:100010007510000871010008E110000800000000E0
:100020000000000000000000000000007B1000083D
:100030008101000800000000791000087D10000810
:100040001F0100081F0100081F0100081F01000810
:100050001F0100081F0100081F010008830100089C
:100060001F0100081F0100081F0100081F010008F0
:100070001F0100081F0100081F0100081F010008E0
:100080001F0100081F0100081F0100081F010008D0
:100090001F010008750100081F0100081F0100086A
:1000A0001F0100081F0100081F0100081F010008B0
:1000B0001F0100081F0100081F0100081F010008A0
:1000C0001F0100081F0100081F0100081F01000890
:1000D0001F0100081F0100081F0100081F01000880
:1000E0001F0100081F0100081F010008DFF810D0E1
:1000F00000F02CF80048004721110008AFF3008001
:10010000900400200648804706480047FEE7FEE7C7
:10011000FEE7FEE7FEE7FEE7FEE7FEE7FEE7FEE7B7
:10012000DF100008ED000008D2B201E000F8012B5A
:10013000491EFBD270470022F6E710B513460A4667
:1001400004461946FFF7F0FF204610BD064C074D48
:1001500006E0E06840F0010394E807009847103497
:10016000AC42F6D3FFF7C6FF9C110008BC11000893
:10017000FEE70000014800F008B800001000002071
:100180007047022000F0EAB970472DE9F05F05469C
:10019000006800244669D0F804908768D0F80CB055
:1001A000D0F810A0D0F81880F10748D0F90714D083
:1001B00001218160B80703D5284600F0B5F90CE0AD
:1001C000780702D54FF4006407E0380702D54FF4F2
:1001D000805402E0284600F0A6F9F80516D52968F3
:1001E0004FF480708860B80503D5284600F09EF96A
:1001F0000CE0780502D544F4005407E0380502D538
:1002000044F4804402E0284600F08FF9F80316D544
:1002100029684FF480308860B80303D5284600F081
:1002200087F90CE0780302D544F4004407E0380372
:1002300002D544F4803402E0284600F078F9300713
:1002400007D55FEACB6004D52968102044F4007418
:10025000C86070074FF0080707D55FEA0B7004D538
:100260002868C760284600F059F9B00706D5286805
:10027000C068800702D0284600F051F9700607D503
:100280005FEACA6004D52968102044F480640861DC
:10029000B00607D55FEA0A7004D5286807612846CA
:1002A00000F03EF9F00606D528680069800702D004
:1002B000284600F036F9B00308D55FEAC96005D5D5
:1002C000296810204860284600F02CF9F00307D573
:1002D0005FEA097004D528684760284600F029F9CC
:1002E000300446D55FEA497040D5F00504D55FEA91
:1002F000C87001D044F00104B00504D55FEA8870ED
:1003000001D544F00204700504D55FEA487001D5B8
:1003100044F00404300529D518F0700F26D008F0F9
:100320007000402815D006DC102809D020280AD0FB
:10033000302816D10AE050280ED0602811D10EE0E6
:1003400044F008040DE044F010040AE044F02004F6
:1003500007E044F0400404E044F0800401E044F489
:1003600080742868816921F0700181612968042006
:100370004860002C05D0686A204368622846FFF771
:1003800003FFBDE8F09F70B5040003D094F820008F
:1003900010B104E0012070BD204600F081F8206813
:1003A000016821F00201016000F0E2F9054605262E
:1003B00004E000F0DDF9401B0A2811D820684068ED
:1003C0008007F6D42068016841F00101016000F067
:1003D000CFF905460BE000F0CBF9401B0A2806D9FF
:1003E000606A40F40030606284F82060D2E72068E0
:1003F0004068C007EFD0207E0128206801683DD00A
:1004000021F080010160607E01282068016838D0F9
:1004100021F040010160A07E01282068016833D0EE
:1004200021F020010160E07E0128206801682ED0C3
:1004300041F010010160207F01282068016829D067
:1004400021F008010160607F01282068016824D044
:1004500021F004010160D4E902010843D4E9041247
:10046000114308436168491E08432168C8610020A0
:100470006062012084F82000002070BD41F08001FE
:10048000C0E741F04001C5E741F02001CAE721F093
:100490001001CFE741F00801D4E741F00401D9E7AA
:1004A00010B586B00021009101910291039100687E
:1004B000174988422AD11748C16941F00071C161CA
:1004C000C16901F000710491816941F00401816109
:1004D0008069114C00F0040004904FF4006000901B
:1004E0006946204600F046F8A014009002200190D2
:1004F000032003906946204600F03CF800220221C8
:10050000152000F093FA152000F082FA06B010BD15
:10051000006400400010024000080140704770472E
:100520007047704770477047704770477047704713
:100530007047704770B5044600F01AF90546601C14
:1005400002D004480078044400F012F9401BA04295
:10055000FAD370BD0000002070470000044910B5B8
:100560000A68024202D00860FFF7F6FF10BD0000E3
:10057000140401402DE9F84FDFF8B891002409F187
:10058000040A0AF1040B23460F270BF1040EC9E0FD
:100590000125A5402A40AA427DD1674ED1F804C06A
:1005A000ACEB0608B44532D014DCBCF1030F3AD0F2
:1005B00009DCBCF1000F2AD0BCF1010F1CD0BCF14A
:1005C000020F31D11DE0BCF1110F17D0BCF1120F99
:1005D0002AD119E0B8F5881F19D006DCB8F5803F9C
:1005E00015D0B8F5801F1FD111E0B8F5001F0ED04F
:1005F000B8F5041F18D10AE0CB6815E0CB681B1DC5
:1006000012E0CB6808330FE0CB680C330CE08B684A
:100610002BB1012B4FF0080303D0456104E0042304
:1006200002E0056100E00023FF2A01D8064601E050
:1006300000F104064FEA840501D9A5F12005D6F89A
:10064000008007FA05FC28EA0C0803FA05F548EAD9
:100650000508C6F800804D68ED0062D5374DAE69DB
:1006600046F00106AE61AD6924F0030605F0010510
:100670000095334D06EB050CDCF80850A607360F45
:1006800007FA06F825EA0805DFF8B880404503D1E7
:100690004FF0000817E044E0DFF8AC80404502D19D
:1006A0004FF001080FE0DFF8A480404502D14FF081
:1006B000020808E0DFF89880404502D14FF00308B7
:1006C00001E04FF0040808FA06F848EA0508CCF8FB
:1006D00008804D68D9F80060ED034D4601D51643FA
:1006E00000E096432E604D68DAF80060AD03554691
:1006F00001D5164300E096432E604D68DBF800609C
:10070000ED025D4601D5164300E096432E604D682C
:10071000DEF80060AD02754601D5164300E0964351
:100720002E60641C0D682A46E5407FF431AFBDE8B9
:10073000F88F00000004014000001110001002407A
:100740000000014000080140000C01400010014081
:1007500000140140C26821EA02030A4043EA024150
:10076000016170470AB1016170470904FBE70000AD
:1007700001488068704700000000002070B5040048
:1007800025D094F83D00002520B984F83C5020463F
:1007900000F0B8F8242084F83D002068016821F0BA
:1007A000010101602068016841F400410160206896
:1007B000016821F40041016000F000FA4D4A6168CF
:1007C000914201D84C4900E04C49884201D20120B5
:1007D00070BD4B492368B0FBF1F15E6826F03F061F
:1007E0000E435E606368934206D94FF49673594393
:1007F0004FF47A73B1FBF3F12368491C1E6A26F0AB
:100800003F06314319626168914210D84900401E89
:10081000B0FBF1F2521CC2F30B02042A01D20420F5
:1008200022E0B0FBF1F0401CC0F30B001CE0A2681A
:10083000F2B301EBC10303EB0116431EB3FBF6F366
:100840005B1C43F480431B0549D092B301EBC1020A
:1008500002EB0111401EB0FBF1F0401CC0F30B0095
:1008600040F4804040F400402168CA694CF6FF73B0
:100870009A431043C861D4E9071001432068026815
:1008800022F0C00211430160D4E903010143206852
:10089000826848F2FF339A4311438160D4E905012D
:1008A00008432168CA6822F0FF021043C86001E0D3
:1008B0000EE016E02068016841F001010160256446
:1008C000202084F83D00256384F83E50002070BD50
:1008D00001EB4106431EB3FBF6F35B1CB3E70120BB
:1008E000C2E701EB4101401EB0FBF1F0401CC0F338
:1008F0000B00B7E7A086010080841E0000093D00C0
:1009000040420F0010B586B0002100910191029184
:10091000039100680F4988421AD10F4CA06940F03A
:100920000800A061A069694600F008000490C0209A
:10093000009012200190032003900848FFF71AFE50
:10094000E06940F40010E061E06900F400100490F8
:1009500006B010BD0054004000100240000C0140E1
:1009600002488168027811448160704700000020CD
:10097000074810B5016841F010010160032000F044
:1009800075F8002000F006F800F024F8002010BDF3
:100990000020024070B50D4D04464FF47A7128785E
:1009A000B1FBF0F00A490968B1FBF0F000F0DCFAA5
:1009B00048B9102C07D200222146501E00F036F80C
:1009C00000206C6070BD012070BD000000000020A0
:1009D0000C0000200C4808B5816941F001018161DB
:1009E000816901F001010091C16941F08051C1614B
:1009F000C06900F0805000900448416821F0E06137
:100A000041F08061416008BD0010024000000140DB
:100A1000002809DB00F01F020121914040098000FD
:100A200000F1E020C0F8001170470000F0B40E4B58
:100A30001B680C46C3F30223C3F10705042D00D93C
:100A40000425191D072901D2002300E0DB1E012621
:100A500006FA05F1491E214099409E40761E164037
:100A60003143F0BC00F03DBB0CED00E0064900F066
:100A7000070208684FF6FF03184040EA0220034AC5
:100A800010430860704700000CED00E00000FA051C
:100A90002DE9F0470F46050061D0434E306800F065
:100AA0000700B84209D2306820F0070038433060B0
:100AB000306800F00700B84251D128683B4C8107EC
:100AC00012D5400703D5606840F4E0606060287884
:100AD000000703D5606840F4605060606068A968F2
:100AE00020F0F000084360602878C00728D06868CC
:100AF000012810D02168022810D0890700292EDA99
:100B0000616821F0030101436160FFF731FE804617
:100B100041F288390DE021688903EFE78901EDE7AB
:100B2000FFF726FEA0EB0801494502D90320BDE8E6
:100B3000F0876068696800F00C00B0EB810FEFD1BE
:100B4000306800F00700B8420BD9306820F0070089
:100B500038433060306800F00700B84201D001200F
:100B6000E5E72878400705D56068E96820F4E0608B
:100B7000084360602878000706D56068296920F47A
:100B8000605040EAC100606000F028F86168084ADF
:100B9000C1F30311515CC84006490860064800686B
:100BA000FFF7F8FE0020C2E70020024000100240DC
:100BB000841100080C0000200400002004480549AE
:100BC00000684968044AC1F30221515CC84070477B
:100BD0000C000020001002409411000812A185B002
:100BE0000FC98DE80F0014A0144A006804905168E2
:100BF000134801F00C03042B10D0082B0ED1C1F3C5
:100C00008343C9031DF803000AD5516804AAC1F340
:100C10004041515C0A4A5043B0FBF1F005B07047C7
:100C200008494843FAE700000203040506070809DB
:100C30000A0B0C0D0E0F10100102000000100240F4
:100C400000127A0000093D002DE9F84F040070D031
:100C50002078C04DC00749D06868C0F381000128E2
:100C600007D06868C0F38100022809D16868C00312
:100C700006D52868800339D560680028E7D035E0BC
:100C80006068B0F5803F0BD010B1B0F5A02F11D047
:100C9000286820F480302860286820F4802002E052
:100CA000286840F480302860606890B1FFF760FDEC
:100CB00006460AE0286840F480202860F0E700BF7C
:100CC000FFF756FD801B642873D828688003F7D58A
:100CD0000CE0FFF74DFD064605E000BFFFF748FDBD
:100CE000801B6428F0D828688003F7D420789A4EB7
:100CF00080074FF001094FF0000839D5686810F0FF
:100D00000C0F07D06868C0F38100022809D1686819
:100D1000C00306D42868800714D52069012808D1AB
:100D200010E02069B0B1C6F80090FFF721FD07463A
:100D300005E00AE1FFF71CFDC01B0228C4D82868A3
:100D40008007F7D52868616920F0F80040EAC10003
:100D500028600DE0C6F80080FFF70AFD074604E0B2
:100D6000FFF706FDC01B022823D828688007F7D4A8
:100D7000207800072CD57948A169D9B1C0F8009036
:100D8000FFF7F6FC074604E0FFF7F2FCC01B022861
:100D90000FD8686A8007F7D571484FF4FA51006898
:100DA000B0FBF1F0009000BF0098411E0091FAD214
:100DB0000EE080E0C0F80080FFF7DAFC074604E0B0
:100DC000FFF7D6FCC01B022875D8686A8007F7D4E5
:100DD0002078400760D5E8690027C00008D4E8699A
:100DE00040F08050E861E869012700F080500090F1
:100DF0005C480168C90513D40168834641F48071D9
:100E00000160FFF7B5FC824606E000BFFFF7B0FCCB
:100E1000A0EB0A0064284ED8DBF80000C005F5D529
:100E2000E06801280AD008B1052813D0286A20F00C
:100E300001002862286A20F0040002E0286A40F0DD
:100E400001002862E06841F2883B98B1FFF790FC0E
:100E500082460BE0286A40F004002862EEE700BFFB
:100E6000FFF786FCA0EB0A0159455AD8286A80078B
:100E7000F6D50CE0FFF77CFC824605E0FFF778FC36
:100E8000A0EB0A0159454CD8286A8007F6D41FB157
:100E9000E86920F08050E861E06988B36968C1F3CF
:100EA0008101022944D00228C6F8608004D0FFF7EF
:100EB0005FFC044638E034E0FFF75AFC074604E0E4
:100EC000FFF756FCC01B02282BD828688001F7D4F6
:100ED000206AB0F5803F05D16868A16820F4003031
:100EE00008436860D4E908010843696821F4741173
:100EF00008436860C6F86090FFF73AFC044606E0D5
:100F000025E000BFFFF734FC001B022809D8286841
:100F10008001F7D51BE000BFFFF72AFC001B022869
:100F200002D90320BDE8F88F28688001F4D40EE0D0
:100F30000128F7D06868226A00F48031914204D118
:100F4000616A00F47010884201D00120EAE70020B5
:100F5000E8E70000001002400000424280044242E4
:100F60000C0000200070004010B5401EB0F1807FE2
:100F700001D3012010BD4FF0E02460610F21601704
:100F800000F0AFF80020A06107202061002010BD14
:100F9000FEE700000C4810B50A49016015214160C8
:100FA00000218160C16001614161017641768176F5
:100FB000C17601774177FFF7E6F9002801D072B6D4
:100FC000FEE710BD006400401000002070B586B040
:100FD000002424480094019402940394816941F010
:100FE00010018161816901F010010491816941F072
:100FF00020018161816901F020010491816941F042
:1010000008018161816901F008010491816941F061
:10101000040181618069144E00F004004FF4005512
:101020000490002229463046FFF79CFB00950125DD
:10103000CDE901540224694630460394FFF79AFA39
:101040000A486946CDE9004002950948FFF792FA3F
:10105000002201210720FFF7E9FC0720FFF7D8FC59
:1010600006B070BD001002400010014000002110C9
:10107000000C0140FEE7FEE770477047FFF770BCC9
:1010800030B58FB028216846FFF755F814210AA81B
:10109000FFF751F801210804CDE900100024029463
:1010A00002250491CDE907504FF4E01009906846FD
:1010B000FFF7CAFD08B172B6FEE70F20CDE90A05B9
:1010C0004FF48060CDE90C4002210AA80E94FFF78E
:1010D000DFFC002801D072B6FEE70FB030BD7047CC
:1010E000FEE70907090E002804DB00F1E02080F884
:1010F0000014704700F00F0000F1E02080F8141D8C
:10110000704702E008C8121F08C1002AFAD17047D0
:101110007047002001E001C1121F002AFBD1704777
:10112000FFF726FCFFF7ACFFFFF750FFFFF732FF9A
:10113000114810494FF4804201601049416000217C
:101140008160C0E9031241618161C1610162FFF701
:1011500015FB08B172B6FEE7094D4FF400544FF489
:101160007A7621462846FFF7F5FA3046FFF7E2F98E
:10117000F7E700000054004038000020A08601007E
:101180000010014000000000000000000102030404
:10119000060708090000000001020304BC11000852
:1011A000000000201000000002110008CC1100080F
:1011B000100000208004000012110008010000004F
:0C11C00010000000000000000024F400FB
:04000005080000ED02
:00000001FF
